:020000040800F2
:1000000070050020E1000008310B0008830800089B
:1000100000000000000000000000000000000000E0
:10002000000000000000000000000000A50B000818
:100030000000000000000000330B0008F50B000872
:10004000F3000008F3000008F3000008F3000008C4
:10005000F30000084D08000869080008F3000008D4
:1000600000000000F3000008F3000008F30000089F
:10007000F3000008F3000008F3000008000000008F
:10008000B50D0008F300000800000000F90C00089E
:10009000F3000008F3000008F3000008F300000874
:1000A000F3000008F3000008F300000871130008D3
:1000B000F300000800000000000000000000000045
:1000C000F300000800000000F30000080348854624
:1000D00000F044FA0048004779230008700500202A
:1000E0000448804704480047FEE7FEE7FEE7FEE7D6
:1000F000FEE7FEE7FD0B0008CD000008F8B502465C
:100100004A40D40F42004B0052085B089A4202D288
:100110000246084611464A0023D0C30D4A00DDB20C
:10012000120EAD1A202D35DA49020126490AF605CC
:100130008A19002C00D0524220214F1B1146B94091
:100140002A411018C20D9A4221D0002C17D0012D3F
:1001500008DCDA05801AD20F8019D207DBB200F072
:1001600064F9F8BDDA05801A012340001B06C018A7
:1001700080185A428018CA0F1043490007E0490806
:10018000C2071143DA05801A80194008801800F070
:1001900044F9F8BD61000122511A001BF7E7012262
:1001A000D2075140AAE70122D2075040A6E70246F3
:1001B00070B54A40D30FDB0740002DD04A002AD04B
:1001C000010E140E000212020919400A520A841884
:1001D000E50104465443000A120A2E045043A419B0
:1001E0004219200CC543AA18120C0125AD03521C5C
:1001F000521912047F39240400D0521C104301D438
:100200004000491EC2B20C06C0092018401C40081C
:10021000802A02D003E0002070BD40084000002981
:1002200000DA0020184370BDF0B51FB488B00B99F8
:100230000998002448400999C00F490049080991CC
:10024000C0070B990090490049080B91099908983B
:10025000A64608431CD00B990A98084318D0099861
:1002600001244000420D4800410D09982405000377
:10027000000B204309900B980003000B20430B90C8
:1002800050181C494018002201901446104605E001
:10029000002001460DB0F0BD032801DA034600E05E
:1002A00003239C46C11A0AAE0AE05F0008ADED5B6D
:1002B0004F00F75B7D430027AA187C41491C5B1E59
:1002C0006145F2DD410004AB5A522104120C0A438D
:1002D000240C401C0828DFDB01980290009970462E
:1002E00001910090059B049A0799069800F0E3F8A5
:1002F000D0E700000DFCFFFF0122D207002800DB41
:10030000101A002900DB511A814201D801207047E0
:10031000002070470122D207002800DB101A0029B4
:1003200000DB511A814201D2012070470020704742
:10033000C217C10F504010B54018CA0796230021BC
:1003400000F073F810BD10B500229623114600F09E
:100350006CF810BD0EB5C217C10F5040CA07401847
:100360000021054B0293019200910A460B4600F0D2
:10037000A2F803B000BD000033040000C20F41002A
:1003800040020123400ADB05D207090EC0187F296D
:1003900001DA00207047962903DC9623591AC840D9
:1003A00001E096398840002AF4D0404270470000AE
:1003B00070B5CD0F4A0009030123090B1B05194332
:1003C0000B4BED070024520D9A4201DA002070BD5C
:1003D000074B34339A4203DC9A1A00F00DF802E01E
:1003E0000449511888402C43F1D0404270BD0000B0
:1003F000FF030000CDFBFFFF10B5202A04DB0846F9
:10040000203AD040002110BD0B46D340D0402024DC
:10041000A21A91400843194610BD002904DA401C75
:10042000490001D140084000704770B40024050C19
:1004300005D11024000402D1002921D01124050E79
:1004400001D100020834050F01D10001241D850FE0
:1004500001D18000A41C002801DB4000641C00299D
:1004600008D020252E1B0D46F540A14000D00121CB
:100470002943084301061B1B000ADB1D02D500208F
:1004800070BC7047DB05181880180029F8DA401C8A
:100490004900F5D170BC40084000704710B5002BF2
:1004A00008DA0024401C614192185B411A4301D1D3
:1004B0004008400010BDF0B51FB482B005460C00E6
:1004C00003D0084602F0CEFB02E002F0CBFB203066
:1004D000024600902146284600F052F8049B059AF7
:1004E00004460F4618431143084314D018461043DE
:1004F0001BD0009840210A1A18460599FFF77CFF87
:1005000005460E46009A0599049800F039F808430C
:1005100005D0012004E02046394607B0F0BD002098
:10052000C11705430E432C43374300990E986305CA
:10053000401A7905E40A00220C43FD0A0A3002D56C
:1005400000200146E9E70105101969410C9C0D9D49
:1005500000196941FFF7A2FFDFE70000064C012503
:10056000064E05E0E36807CC2B430C3C984710345B
:10057000B442F7D3FFF7AEFDB0320008D032000826
:1005800010B5202A04DB0146203A9140002010BD1E
:10059000914020239C1A0346E3401943904010BD2C
:1005A00080B588B040F2005002F0BAF8144802F06A
:1005B000B7F80020009001F0ABFB009811490191C1
:1005C00001A90876104A039201224A7640F20012ED
:1005D000029240F20042049288760222059242F290
:1005E0000002069201F0DEFB009801F083FB009808
:1005F00001F064FC009801F06FFB08B080BDC046BC
:10060000090600004C2401402000002084B002A90B
:100610000880694600200870FFE7684600783728A0
:100620003DDCFFE702A8008821490988884204DDF3
:10063000FFE703A91820087035E002A80088694682
:1006400009788A001A49895A884214DCFFE702A80F
:100650000088694609788900154A891849888842BE
:1006600009DDFFE768460078193001A90880019884
:1006700003A9087017E002A800880D49DE22895AF4
:10068000884204DAFFE703A9512008700BE0FFE776
:10069000FFE7FFE70098401C69460870BDE703A923
:1006A00000200870FFE703A8007804B07047C04638
:1006B000C0310008B0B582B00920C006042101F0A5
:1006C00089FD61494978884200D1BAE00920C00615
:1006D000082101F07FFD5C494978884240D1FFE75D
:1006E0005948007860B9FFE7574803214056012870
:1006F00005DCFFE75449C878401CC870FFE72EE0CE
:100700005148007802280CD1FFE74F48032140569A
:10071000172805DCFFE74C49C878401CC870FFE784
:100720001CE049480078012817D1FFE7464803211B
:1007300040562C2804DCFFE7F8492D20C8700BE058
:10074000F64803214056402805DCFFE7F349C87806
:10075000401CC870FFE7FFE7FFE7FFE7FFE732E075
:10076000EE48007860B9FFE7EC48032140560228C4
:1007700005DBFFE7E949C878401EC870FFE721E0C4
:10078000E6480078012810D1FFE7E44803214056ED
:100790002E2805DBFFE7E149C878401EC87003E05A
:1007A000DE492D20C870FFE70BE0DC4803214056EE
:1007B000012805DBFFE7D949C878401EC870FFE76C
:1007C000FFE7FFE7FFE7D5480078022816D1FFE7EB
:1007D000D24A032410570A2390FBF3F1D248455C18
:1007E000D2490D70125792FBF3F46343D21A805C26
:1007F00048700020022200F00FFE21E0C748007878
:1008000001281CD1FFE7C54A032410570A2390FB97
:10081000F3F0C5490D5CC24801900570125792FB78
:10082000F3F46343D21A895C417001780C2000F024
:100830004FFE019841780E2000F04AFEFFE7FFE7E7
:10084000FFE702B0B0BDC0460000002080B5012027
:1008500001F0E8FB20B1FFE7002001F0F9FBFFE722
:10086000012001F0D7FB80BD80B5042001F0DAFB48
:1008700030B1FFE7FFF71EFF042001F0CBFBFFE7DD
:1008800080BDFFE7FEE7000080B586B004A90091B7
:100890000020088003A9087002A9087001A9087047
:1008A00000F048F9FFF756FD294A2A4BFFF7BCFC38
:1008B000FFF77EFD014600980180008820B9FFE720
:1008C00005A9FF2008703EE000F05AF9FFF79EFEF0
:1008D000014602A8017000780521B0FBF1F0411F2C
:1008E00001A801700078082804DBFFE701A90720B0
:1008F0000870FFE703A900200870FFE703A800784D
:1009000040B250281BDCFFE704A8008801A9097841
:10091000A2224A431049891803AA127852B25200FF
:10092000895A884205DCFFE703980F3005A9087053
:1009300009E0FFE70398401C03A90870DEE705A95A
:10094000FF200870FFE705A8007806B080BDC0460C
:10095000333333333333FB3FB02C000870B586B0EC
:100960008648012101F036FC012800D0C1E06A4828
:10097000007800B1BDE0052001F084F97F48012135
:1009800001F028FC012800D0B2E063490120087082
:1009900062480078002847D1FFE76048C1780170BD
:1009A000007802281AD1FFE75E490020C870097854
:1009B0005A4BD970032559570A2491FBF4F15A4A2E
:1009C000565C5A490E705B5793FBF4F56C431B1B46
:1009D000D25C4A70022200F01FFD24E04F480078EC
:1009E00001281FD1FFE7F24880794C4AD0700324D8
:1009F00010570A2390FBF3F04B490D5C48480590D3
:100A00000570125792FBF3F46343D21A895C41706C
:100A100001780C2000F05CFD059841780E2000F074
:100A200057FDFFE7FFE762E03C480078022837D136
:100A3000FFE73A49002008703A48007888B9FFE794
:100A4000384A10780A23B0FBF3F13748445C374941
:100A50000C701278B2FBF3F46343D21A805C4870D6
:100A6000FFE72E48C1782F48017000214170817046
:100A70000078012806DBFFE72A490120C870CC492D
:100A80000870FFE72948039000F00EFC039900204E
:100A90000490062200F0C0FC04982049C87025E0AC
:100AA0001E480078012820D1FFE71C490291002050
:100AB00008701B48019001780C2000F009FD019896
:100AC00041780E2000F004FD0298C078B849887182
:100AD0001448C078012804D1FFE7B5490120087007
:100AE000FFE70E490020C870FFE7FFE7FFE7FFE7D9
:100AF0000FE02248012101F06DFB48B9FFE70648ED
:100B00000078012804D1FFE7034900200870FFE7BF
:100B1000FFE706B070BDC04629000020000000209D
:100B200010000020240000200600002012000020F9
:100B30007047704780B584B010480190022102913F
:100B4000002201F0F7FA032001F09CF801980299C5
:100B50000122039201F0EEFA192001F085F80398C2
:100B600000F0D4FFFFE70020022101F0FFF808B9F0
:100B7000FFE7F8E70A48008804B080BD0014004889
:100B800080B5012000F0C2FFFFE70020022101F044
:100B9000EDF808B9FFE7F8E70148408880BDC04696
:100BA000200000207047000080B584B002900298B9
:100BB000401E000E18B1FFE70120039011E00298DB
:100BC000401E0949086000200190C043032100F045
:100BD0009FFD019805490860054A072111600390AF
:100BE000FFE7039804B080BD14E000E018E000E0E7
:100BF00010E000E080B501F055F880BD80B584B00C
:100C000034490868012210430860FFE73148006852
:100C10008007002801D4FFE7F8E7FFE72E490868BE
:100C200080221043086000200390FFE703987F288C
:100C300005D8FFE7FFE70398401C0390F6E7264935
:100C4000086890221043086000200390FFE7039893
:100C50007F2805D8FFE7FFE70398401C0390F6E7DD
:100C6000FFE71D490868032290430860194A10688D
:100C70001A4B184010600868194A1040086008684C
:100C8000184A10400860184908680F22904308600D
:100C90001649086840F20312904308600868012270
:100CA00001921304984308600868D30798430860CA
:100CB0000F490868904308600E49002002900860C0
:100CC00001F02EFE01980299C00601F08FFB04B0DE
:100CD00080BDC0460010024004100240FFFFF2FE3B
:100CE0000C00FF08FFFFC2772C10024030100240BA
:100CF000341002400810024080B584B02B48012116
:100D000001F03DFF01284ED1FFE7F64800780128A9
:100D100016D1FFE7F348408864280BDBFFE7F14872
:100D200003908079FFF70FFB01F08CFB0399002003
:100D3000488004E0EB494888401C4880FFE7FFE713
:100D4000E8480078012822D1FFE7E6480290808831
:100D5000FFF7EEFA0299096AFFF7DCFA0246501E25
:100D600082410920C006102101F0E4F90298808830
:100D7000632805DCFFE7DB488088401C019002E027
:100D800000200190FFE70198D649888006E00920FD
:100D9000C0061021002201F0CDF9FFE70348012130
:100DA00001F0E4FEFFE704B080BDC0460020004033
:100DB0004000002010B586B0C648012101F0DFFEDA
:100DC000012800D084E1C4480178491C0170C34A5D
:100DD0001178C94311700078022804DBFFE7BE498F
:100DE00000200870FFE7BB48012101F0BFFEBC48AE
:100DF000C078002840D0FFE70920C00642F2000179
:100E0000012201F097F9B84900200870B248007833
:100E1000012830D1FFE7B548059000F045FA059963
:100E20000020062200F0F8FAAD488078F0B9FFE71C
:100E3000AB483C218170407898B9FFE7A8483C2135
:100E40004170007840B9FFE7A54901200871A54A23
:100E500000201070C870FFE7A1490878401E087094
:100E6000FFE79F494878401E4870FFE79C49887813
:100E7000401E8870FFE71BE0F14800220270092045
:100E8000C006102101F056F99748007840B2272893
:100E900005DCFFE794490878401C087007E009204A
:100EA000C00642F20001002201F044F9FFE7FFE72B
:100EB000E4480078002858D1FFE7E2480321405673
:100EC000002852D0FFE78A4901200870DD48C17828
:100ED000884A11700321405602281FD1FFE77F483E
:100EE000007830B1FFE7814908780122104308708B
:100EF00005E07E490878FE2210400870FFE7D248DE
:100F0000017801221143017001780C2000F0E0FA11
:100F100076480178002000F0DBFA25E0C94803217B
:100F2000405601281FD1FFE76C48007830B1FFE739
:100F3000C549087801221043087005E0C2490878C5
:100F4000FE2210400870FFE7684801780122114333
:100F500001700178002000F0BBFABB4801780C203A
:100F600000F0B6FAFFE7FFE720E0614800780128CB
:100F70001BD1FFE75E49002008705C490A78012414
:100F800022430A70B04B04931A7822431A70062247
:100F900000F042FA049801780C2000F099FA0498C5
:100FA00041780E2000F094FAFFE7FFE752480078FE
:100FB00050490978884208D0FFE74E4800784E49EA
:100FC00008704E490020087015E049480078012853
:100FD00010D1FFE749480178491C017000781428B6
:100FE00007DBFFE7974900200870C8704349087085
:100FF000FFE7FFE7FFE793480078022814D1FFE7F7
:101000003B49012008703548007830B1FFE7374987
:101010000020022200F000FA05E0614900200222CF
:1010200000F0FAF9FFE725E086480078012820D192
:10103000FFE72F49012008702848007860B1FFE7DA
:101040008148039001780C2000F042FA039841781F
:101050000E2000F03DFA0BE05148029001780C2080
:1010600000F036FA029801780E2000F031FAFFE71E
:10107000FFE7FFE718480078012828D1FFE771480B
:101080000078012817D0FFE76E48007890B9FFE795
:101090006C480321405602280CD0FFE76A480190B3
:1010A00001780C2000F014FA019841780E2000F02D
:1010B0000FFAFFE7FFE7654800900178102000F085
:1010C00007FA00984178122000F002FAFFE7FFE7E4
:1010D00006B010BD000400402F0000201D000020BD
:1010E00024000020400000201C00002012000020EE
:1010F0002E0000202D0000202C0000202B000020BE
:1011000080B586B0F148022101910122039201F0DD
:1011100011F8039A0920C0060090402101F00AF856
:101120000098039A202101F005F8019800BF00BF44
:1011300000F0A8FD522000F0A9F9302000F0A6F937
:101140000020049000F0A2F90A20029000F09EF91D
:10115000019800F09BF9062000F098F9039800F040
:1011600091FD029A04980E4900F056F9039800F098
:1011700089FD049805A90870FFE705A800781328E1
:101180000BDCFFE705A80078FB2100F0A1F9FFE7E1
:101190000598801C05A90870EFE706B080BDC04621
:1011A0003000002010B584B0FFF7EAFCFFF72EFAFC
:1011B00003A90191087003982149C871FFF764FBE6
:1011C0000146019802AA117000784C2809DBFFE75C
:1011D0001B48002202700920C006102100F0AAFF5F
:1011E000FFE718480078012811D0FFE703AA10781C
:1011F0000A23B0FBF3F14748445C13490C701278A2
:10120000B2FBF3F46343D21A805C4870FFE702A894
:101210000078FF2811D0FFE702AA10780A23B0FB5C
:10122000F3F13C48445C09490C701278B2FBF3F4CA
:101230006343D21A805C4870FFE704B010BDC0461B
:1012400040000020000000201000002004000020CA
:1012500080B588B007900691114801F061FA1148F5
:10126000019001F081FB0198079A02A90A800022EF
:101270004A808A80069B0493CA800A7301F0EEFBC1
:10128000019801F067FB1020032101F099F8019803
:10129000012101F061FC019801F0D6FB08B080BD8E
:1012A0000107000000040040B0B581B0009018496B
:1012B00008780A22B0FBF2F31648C35C009C237046
:1012C0000B78B3FBF2F514466C431B1BC35C009C0C
:1012D00063704B78B3FBF2F3C35C009CA3704B7854
:1012E000B3FBF2F514466C431B1BC35C009CE3701C
:1012F0008B78B3FBF2F3C35C009C23718978B1FB5C
:10130000F2F35A43891A405C0099487101B0B0BDAC
:10131000240000200600002080B586B040F208704E
:1013200001F0FEF91048019001F01EFB019802A99E
:1013300047220A8000224A808A800C4B0493CA808C
:101340000A7301F08BFB019801F004FB13200321C9
:1013500001F036F80198012101F0FEFB019801F03F
:1013600073FB06B080BDC04600200040102700007F
:1013700080B582B01F48204901F043FCD0B1FFE79F
:101380001C4801F019FC02461C490B881C48C25439
:101390000988405C0A2807D1FFE71A490120087034
:1013A00016490020088004E014490888401C088081
:1013B000FFE7FFE70F48144901F023FCB8B1FFE74E
:1013C000124A01921178481C10701148415C09487A
:1013D00001F0FAFB019800780E490978884205D19E
:1013E000FFE70448072101F0FBFBFFE7FFE702B03E
:1013F00080BDC0460038014005000507E800002018
:10140000680000202A000020070007076A0100206A
:10141000EA0000201E00002080B586B005AB1870E1
:10142000049103A802703D4802210022019200F0BD
:1014300081FEA020032100F073F805988006000EBD
:10144000062100F06DF8019802A90870FFE702A8D4
:10145000007803A9097888420EDAFFE7049800783B
:10146000082100F0ADF80498401C0490FFE70298B2
:10147000401C02A90870EAE728480221012200F076
:1014800059FE00BF00BF06B080BDC04680B584B025
:1014900003A90091087021480190022102910022C5
:1014A00000F048FE00BF00BF8020042100F038F8A3
:1014B00000980078082100F033F801980299012281
:1014C00000F038FE00BF00BF04B080BD000400483B
:1014D00080B586B005AA107004A8019001700F486D
:1014E000029002210391002200F024FEA02003219B
:1014F00000F016F805988000C0B2062100F010F840
:1015000001980078082100F05BF802980399012205
:1015100000F010FE00BF00BF06B080BD0004004810
:1015200080B586B005AA107004A8017003A9002038
:101530000870FFE703A8007804A90978884230DA28
:10154000FFE70920C0064021002200F0F3FD00BFA4
:1015500000BF05A800780006002807D5FFE709208E
:10156000C0062021012200F0E5FD06E00920C006AA
:101570002021002200F0DEFDFFE700BF00BF00BF1A
:1015800000BF0920C0064021012200F0D3FD0598CC
:10159000400005A90870FFE70398401C03A90870E4
:1015A000C8E70920C006019040210022029200F005
:1015B000C1FD0198029A202100F0BCFD06B080BD5B
:1015C00080B586B005AA107004A8017003A9002098
:1015D0000870FFE703A8007804A9097888422DDA8B
:1015E000FFE70920C0064021002200F0A3FD05A866
:1015F0000078C00738B1FFE70920C006202101228A
:1016000000F098FD06E00920C0062021002200F02D
:1016100091FDFFE700BF00BF00BF00BF0920C0066B
:101620004021012200F086FD05A9087840080870D5
:10163000FFE70398401C03A90870CBE70920C00608
:10164000019040210022029200F074FD0198029A5C
:10165000202100F06FFD06B080BD000081B0014682
:1016600068460170007840B200280DD4FFE7684654
:10167000007841B21F200A460240012090404909EB
:101680008900024A8850FFE701B0704700E100E09E
:1016900070B582B0024601A802700091007840B295
:1016A000002817D4FFE701A9087840B20322D343EA
:1016B0001840384A8058097849B28C07E50EFF2453
:1016C000AC40A043009CA401E4B2AC4020431940CC
:1016D00088501AE001A908780F2420400838032216
:1016E000D34318402A4A8058097849B28D07EE0E34
:1016F000FF25B540A843009DAD01EDB2B54028439C
:101700002140083919408850FFE702B070BDC0463B
:1017100070B582B0024601A802700091007840B214
:10172000002817D4FFE701A9087840B20322D34369
:101730001840184A8058097849B28C07E50EFF24F2
:10174000AC40A043009CA401E4B2AC40204319404B
:1017500088501AE001A908780F2420400838032295
:10176000D34318400A4A8058097849B28D07EE0ED3
:10177000FF25B540A843009DAD01EDB2B54028431B
:101780002140083919408850FFE702B070BDC046BB
:101790001CED00E000E400E0EB490868082210437B
:1017A0000860FFE7E84800680007002801D5FFE768
:1017B000F8E7E5490868042210430860FFE7E248BB
:1017C00000684007002801D5FFE7F8E77047C046EA
:1017D00083B0024602A802700191007800900128AF
:1017E00004D0FFE7009802280FD01DE0BB490A682B
:1017F0000F20000582430A60019A12050D4BD21892
:1018000002400868104308600FE009490A68032095
:10181000000582430A60019A1205064BD218024065
:1018200008681043086000E0FFE703B07047C04657
:10183000382401400000F0FF80B584B0062000F09D
:10184000ABFE174800F06CFF40F20010012103913D
:1018500000F07CF90020019000F024F8019800F0DD
:1018600047F903980221FFF7B3FF0199052202927D
:10187000084600F08FF8029A0399084600F08AF8AB
:1018800003980721490400F037F800F029F8FFF722
:1018900083FF00F01DF8039800F038F904B080BD14
:1018A0000906000081B00090009838B1FFE7D349E5
:1018B000086840F600021043086006E0CF49086857
:1018C00040F6000290430860FFE701B07047C04651
:1018D000CA49086840F20012104308607047C046C9
:1018E000C6480068C00730B9FFE7C449086801224C
:1018F00010430860FFE7704783B0024602A80270F9
:10190000019100780090012804D0FFE70098022898
:101910000BD015E0B94908680722520490430860CB
:10192000019A0868104308600BE0B449086847F260
:10193000000290430860019A08681043086000E0C4
:10194000FFE703B07047C04680B584B0C54800F0DB
:10195000E7FE0E4800F0E4FE0920C00600220192D6
:1019600003230293194600F04AFC019A08480090AC
:1019700001210223039300F042FC00980199029A8E
:10198000039B00F083FC04B080BDC0461605000038
:101990000014004810B585B0034604A8037003ABDB
:1019A000197002920078052818D8FFE74D49086899
:1019B000019004AB1C780520024662431F2494402A
:1019C000019AA243019203AA12781B7858438240DD
:1019D0000198104301900198086040E004A8007845
:1019E0000B281AD8FFE73E490868019004AB1C7821
:1019F0000520024662431E3A1F249440019AA243E6
:101A0000019203AA12781B7858431E38824001982D
:101A1000104301900198086020E004A800780F2886
:101A20001AD8FFE72D490868019004AB1C780520FF
:101A3000024662433C3A1F249440019AA243019219
:101A400003AA12781B7858433C388240019810430F
:101A500001900198086000E0FFE7FFE7FFE703A8B7
:101A60000078092817D8FFE720490868009003ABE1
:101A70001C7803200246624307249440009AA24344
:101A80000092029A1B7858438240009810430090BD
:101A9000009808601FE003A80078122819D8FFE713
:101AA00011490868009003AB1C780320024662438A
:101AB0001E3A07249440009AA2430092029A1B788F
:101AC00058431E38824000981043009000980860E8
:101AD00000E0FFE7FFE705B010BDC0462C24014041
:101AE00030240140342401400C24014010240140E2
:101AF00081B00090404908680322120690430860B4
:101B0000009A08681043086001B0704781B0014630
:101B1000684601700078C00738B1FFE737490868A8
:101B20000122920510430860FFE7684600788007AD
:101B3000002807D5FFE73149086801225205104304
:101B40000860FFE701B070470824014082B00190AF
:101B500068460170007830B3FFE701A84078C007FD
:101B600038B1FFE72449086840F2001210430860CA
:101B7000FFE701A840784007002807D5FFE71E4986
:101B8000086840F2004210430860FFE701A80078AF
:101B90008007002806D5FFE718490868022210438D
:101BA0000860FFE725E001A84078C00738B1FFE7EB
:101BB0001149086840F2001290430860FFE701A84D
:101BC00040784007002807D5FFE70B49086840F236
:101BD000004290430860FFE701A8007880070028D2
:101BE00006D5FFE705490868022290430860FFE731
:101BF000FFE702B07047C0460424014008240140BA
:101C000080B586B0C94800F08BFD0920C00602905F
:101C10000121049140F20022009200F02BFA029878
:101C2000049940F20042059200F024FA009B0298C9
:101C3000049A0221019100F0E2FA009B0298049AB2
:101C40000021039100F022FB01990298049A059B60
:101C500000F0D5FA02980399049A059B00F016FB50
:101C600006B080BD1105000081B0009000981249B7
:101C70000860FFE71048006808B1FFE7FAE701B025
:101C80007047C04680B582B00190FFE70198411EC1
:101C9000019120B1FFE76420FFF7E6FFF6E702B00D
:101CA00080BD00000448006828B1FFE702490868C9
:101CB000401E0860FFE770473C00002081B00146ED
:101CC00068460170007814214143844A88580123F2
:101CD0009843885001B0704781B001466846017052
:101CE0000078142141437D4A8858012318438850C5
:101CF00001B0704781B00146684601700078142138
:101D00004143764A885820231843885001B07047D1
:101D1000B0B581B0014668460170017814221346BF
:101D20004B436E4C19590125A943195101781346AB
:101D30004B43002119510478134663435E4C1951FB
:101D40000478134663435A4C195103785A43594B4C
:101D5000D150007880000F22824003490868104368
:101D6000086001B0B0BDC0460400024083B002AAC2
:101D7000107001910A480068019912789200914010
:101D8000084204D0FFE769460120087003E0694675
:101D900000200870FFE76846007803B07047C0462F
:101DA00000000240B0B584B0024603A80090027063
:101DB00002910078FFF782FF009B029800681C7870
:101DC00014210A4662433A4C1051029880681C78EC
:101DD0000A466243374C10510298008A1C780A4622
:101DE0006243354C10511A78084650433B4A80589C
:101DF0000190019843F60074A04301900298446852
:101E0000C5682C4340690443019820430190019820
:101E10001B78594388500298007E01280AD1FFE7B9
:101E200003A80078142141432C4A885840231843C2
:101E3000885009E003A8007814214143274A8858B4
:101E4000402398438850FFE70298407E01280AD13A
:101E5000FFE703A8007814214143204A88588023D3
:101E60001843885009E003A80078142141431B4A15
:101E70008858802398438850FFE70298807E50B9A5
:101E8000FFE703A8007814214143144A885810231F
:101E90009843885009E003A80078142141430F4A71
:101EA0008858102318438850FFE704B0B0BDC046DF
:101EB00010000240140002400C00024081B00146B4
:101EC00068460170007814214143044A885844F25E
:101ED00000039843885001B07047C0460800024094
:101EE00080B582B0B84800F01BFC40F2006000F002
:101EF00017FC00200090022100F048FC009A04200A
:101F00000190114600F016F8019800F083F80620C1
:101F1000012100F055FA01990920C00600F05AF994
:101F2000414248410249487002B080BD110500009D
:101F30000000002085B0049003A8017002A90A7077
:101F4000049B304A116899431160049B2E4A116822
:101F500099431160049B2D4A116899431160049BB9
:101F60002B4A1168994311600078019020B1FFE776
:101F70000198012806D00BE0049A22490868104312
:101F8000086006E0049A204908681043086000E0F1
:101F9000FFE702A80078009003282FD800998A0054
:101FA00001A080188746C04600F006B800F00FB8C0
:101FB00000F018B800F021B8049A144908681043DA
:101FC0000860049A124908689043086017E0049A70
:101FD0000E49086890430860049A0D490868104348
:101FE00008600CE0049A0949086810430860049AE4
:101FF000074908681043086001E0FFE7FFE705B004
:102000007047C04600040140040401400804014038
:102010000C04014081B0009000980C49086001B0A8
:102020007047C04682B00090084800680099084296
:1020300004D0FFE701A90120087003E001A90020F6
:102040000870FFE701A8007802B07047140401404F
:1020500081B00146684601700078820003488058CC
:1020600003498958C86201B07047C046A0320008D1
:10207000A832000886B00590049103920598006A82
:1020800001900598406A009002A900200880FFE7AF
:1020900002A8008807281DD8FFE702A80188039836
:1020A000C840C00780B1FFE702A8018889000F225D
:1020B0008A400199914301910499008880008140F0
:1020C000019808430190FFE7FFE70298401C02A92E
:1020D0000880DDE702A908200880FFE702A8008841
:1020E0000F281FD8FFE702A801880398C840C0073F
:1020F00090B1FFE702A80188890020390F228A40A9
:102100000099914300910499008880002038814013
:10211000009808430090FFE7FFE70298401C02A9DF
:102120000880DBE7019805990862009805994862E4
:1021300006B0704783B00290019168460270007843
:1021400020B1FFE701980299886103E001980299A4
:102150008862FFE703B0704780B586B0834800F01F
:10216000DFFA1A4800F0DCFA0920C00601900121CC
:1021700005910022049242F20003009300F03FF820
:10218000009B019804990322029200F07FF80198C5
:10219000049A05991023039300F031F80198029AEC
:1021A000039B049900F072F80499059B08480222E9
:1021B00000F025F8FFF794FE00F0AEF8FFF7C4FB3F
:1021C000FFF71EFD06B080BD1105000016050000DA
:1021D0000014004883B001900091019800690099B3
:1021E000084204D0FFE702A90120087003E002A919
:1021F00000200870FFE702A8007803B0704787B09E
:102200000690059104920393069800680190069841
:10221000C068009002A900200880FFE702A800889B
:102220000F282BD8FFE702A801880398C840C007F1
:10223000F0B1FFE702A801884900032213468B4052
:10224000019999430191059B018849008B400199AF
:1022500019430191018849008A40009991430091F6
:102260000499008840008140009808430090FFE7EF
:10227000FFE70298401C02A90880CFE70198069961
:10228000086000980699C86007B0704710B586B01E
:10229000059004A80170039202930078012806D1EA
:1022A000FFE7029A059948681043486005E0029AE2
:1022B0000599486890434860FFE70598806800905A
:1022C00001A900200880FFE701A800880F281DD879
:1022D000FFE701A801880298C840C00780B1FFE766
:1022E00001A80188490003228A4000999143009186
:1022F0000399008840008140009808430090FFE760
:10230000FFE70198401C01A90880DDE700980599C6
:10231000886006B010BD000080B586B0134800F09C
:10232000FFF9134800F0FCF90920C00602900121D2
:10233000019100220392E0230093FFF760FF009BCE
:102340000298039903220492FFF7A0FF0199039AD0
:10235000084802230593FFF752FF02980399049A55
:10236000059BFFF793FF06B080BDC0461105000036
:10237000120500000004004880B582B000200190E2
:1023800000F0D2FA40F2E830FFF77CFCFFF7E4FE01
:1023900009480A49FEF75CFFFEF7BEFFFEF700F9A9
:1023A000FFF74AFA00F034F8FEF7AAFEFFE7FEF75F
:1023B000D5FAFEF7F7FEFAE71F1C000088130000AD
:1023C00080B584B00A46014603A80190017002A9B5
:1023D0000A70007840B20978FFF75AF9019800783E
:1023E00040B2FFF73BF904B080BD000082B001901D
:1023F000009101980099044A11400843034908607C
:10240000BFF34F8F02B0704780FFFF1F08ED00E061
:102410005E4900208871C8718860C8600861064AFA
:102420004A61064A8A61064ACA610862486288802F
:10243000087048807047C0460000A0429A99993FB2
:10244000CDCC4C3F80B58CB00B900B98FDF796FF30
:1024500001464E48817180792C2804DCFFE74B4906
:1024600000200870FFE7494906918879C979401A28
:10247000FDF75EFF01460698816080680021FDF748
:1024800049FF00287BD1FFE7404880684049FDF7BD
:1024900033FF20B9FFE73D493E4808626EE03B4903
:1024A0000591486900908868C968FDF778FE014683
:1024B0000098FDF77CFEFDF761FF05990AAA0492DA
:1024C000108088698968FDF772FEFDF757FF0146A5
:1024D000059809AA03921180C1690291816801914E
:1024E000C1680846FDF70AFE01460198FDF757FE50
:1024F00005990969FDF702FE01460298FDF757FEAE
:10250000FDF73CFF039A0346049808A90B80008856
:1025100000B2128812B28018098809B24018FDF77B
:1025200007FF0599496AFDF7E9FDFDF727FF014619
:1025300007A80180008800B2002804D5FFE71349EE
:102540000020086212E007A8008800B2652804DBBA
:10255000FFE70E490F48086207E007A8008800B2AD
:10256000FDF7E6FE09490862FFE7FFE70749C8688B
:1025700008618868C860086A4862FFE703E00349A9
:1025800000200862FFE70CB080BDC046400000207C
:10259000000020410000C84282B0014601A801703D
:1025A000DC4A11684CF20003994311605A4A1168E1
:1025B0005A4B1940116000780090092800D9A7E013
:1025C00000998A0001A080188746C04600F012B822
:1025D00000F01CB800F026B800F02EB800F03BB8B0
:1025E00000F046B800F056B800F061B800F071B8DD
:1025F00000F07CB848490868012212049043086042
:10260000086840F200129043086082E0424908687E
:102610000122120410430860086840F2001290433F
:10262000086076E0BB49086808603B49086840F2EA
:102630000012104308606CE0B6490868086036492B
:1026400008680122D20710430860086840F20012AF
:10265000104308605DE0AF49086844F2000210438F
:1026600008602D49086840F200121043086050E0ED
:10267000A849086844F20002104308602649086827
:102680000122D20710430860086840F2001210438C
:1026900008603EE09F49086848F200021043086065
:1026A0001D49086840F200121043086031E0994962
:1026B000086848F2000210430860174908680122C0
:1026C000D20710430860086840F200121043086007
:1026D0001FE0904908684CF20002104308600E4960
:1026E000086840F200121043086012E08949086847
:1026F0004CF2000210430860074908680122D20723
:1027000010430860086840F200121043086000E0BF
:10271000FFE702B07047C04630100240FFFEFE7F68
:1027200081B001466846018000881F2201461140A1
:1027300001238B408109754A88581843885001B09D
:102740007047C04681B001466846018000881F225C
:102750000146114001238B4081096C4A88589843F7
:10276000885001B07047C04681B00146684601807C
:1027700000881F220146114001238B408109634AD2
:1027800088581843885001B07047C04685B00A4643
:1027900004A9087003A8027002789207130F0F2291
:1027A0009A40D2430292097802789207120F914020
:1027B0000191007880080090032835D800998A009C
:1027C00001A080188746C04600F006B800F00EB899
:1027D00000F016B800F01EB8029A184908681040B8
:1027E0000860019A0868104308601EE0029A1249C6
:1027F000086810400860019A08681043086014E0F7
:10280000029A0C49086810400860019A0868104351
:1028100008600AE0029A0649086810400860019AB8
:1028200008681043086000E0FFE705B07047C04645
:1028300014000140100001400C000140080001405C
:1028400084B00020039002903049086801221043B0
:102850000860FFE70398401C03902C4800680221A1
:1028600008400290FFE702990020019041B9FFE77C
:10287000039840F20051401A411E88410190FFE741
:102880000198C0070028E5D1FFE7204800688007CD
:10289000002802D4FFE7FFE7FEE71D49086802228F
:1028A00010430522904308601A49009108680860A7
:1028B00008680860086808600868174A10400860DF
:1028C0000868164A10430860104908680122120679
:1028D00010430860FFE70D4800688001002801D41C
:1028E000FFE7F8E70B49086803229043086008688F
:1028F000022210430860FFE7064800680C210840E8
:10290000082801D0FFE7F7E704B070470010024045
:102910000020024004100240FFFFC2F7000004083C
:1029200080B5FFF78DFF80BD80B508480068084975
:10293000B0FBF1F0FEF738F910B1FFE7FFE7FEE773
:102940000021C843FEF7E4FE80BDC0461800002009
:10295000A086010081B00090009908688022104391
:10296000086001B07047000080B58AB009900998EE
:1029700008907449884226D0FFE708982C4988427D
:1029800029D0FFE70898704988422CD0FFE70898C3
:102990006B4988420FD0FFE708986C4988422BD0DA
:1029A000FFE708986A4988422FD0FFE708986949ED
:1029B000884232D039E023480790FFF7D5FE0798C8
:1029C000FFF7C0FE32E01E480690FFF7CDFE0698E6
:1029D000FFF7B8FE2AE019480590FFF7C5FE0598F5
:1029E000FFF7B0FE22E040F208400490FFF7BCFE83
:1029F0000498FFF7A7FE19E040F210300390FFF7AC
:102A0000B3FE0398FFF79EFE10E00B480290FFF71D
:102A1000ABFE0298FFF796FE08E006480190FFF72C
:102A2000A3FE0198FFF78EFE00E0FFE70AB080BD2D
:102A30000010004012030000110300000404000015
:102A4000010400000B03000081B0009000990868A9
:102A500001221043086001B07047000082B001906D
:102A60000091009800880199886201983449884251
:102A700005D0FFE701983349884212D1FFE7019959
:102A8000086870229043086000984288019908689D
:102A90001043086000988288019908681043086014
:102AA000FFE7009880680199C8620198244988422C
:102AB00019D0FFE701982349884214D0FFE7019815
:102AC000214988420FD0FFE70198204988420AD067
:102AD000FFE701981E49884205D0FFE701981D498C
:102AE00088420DD1FFE70199086840F20032904317
:102AF00008600098C2880199086810430860FFE7E1
:102B000001980F4988420FD0FFE701980F4988428A
:102B10000AD0FFE701980E49884205D0FFE70198E7
:102B20000C49884205D1FFE70098007B01990863B2
:102B3000FFE70199486901221043486102B07047DC
:102B4000002C0140000400400020004000400140F3
:102B5000004401400048014082B001900091009A79
:102B60000199C8681043C86002B0704782B00190F4
:102B700000910098C0430199086102B0704784B089
:102B8000029001910298C068019908400090029853
:102B900000690199084207D0FFE7009820B1FFE7DC
:102BA00003A90120087003E003A900200870FFE7D3
:102BB00003A8007804B0704781B000900098406A84
:102BC0000649084001B0704782B00190009100981A
:102BD000024908400199886202B07047FF01000075
:102BE00082B001906846018000881F220146114092
:102BF00001238B400199820988589843885002B07C
:102C0000704710B585B003900291002001900090AC
:102C1000039802A9098889094058029C1F231C4077
:102C200001210A46A240104001900398029A920D99
:102C30008058029A1B041A40120C914008400090E0
:102C4000009838B1FFE7019820B1FFE704A90120FF
:102C5000087003E004A900200870FFE704A80078CA
:102C600005B010BD2021020C01D010211046020A2F
:102C700001D010460839020901D01046091F820808
:102C800001D01046891E420801D0881E7047081ADC
:102C9000704702E008C8121F08C1002AFAD1704725
:102CA0007047002001E001C1121F002AFBD17047CC
:102CB0004200460049004D005000540061006E0083
:102CC0007B0087009200A900C600E5000201160102
:102CD00028013E01EF0069017C01AE01E80112020A
:102CE00043026F02A602D202FB02230349036D03D3
:102CF000B103F5033F048C04DE0431058705E105CB
:102D00002D067C06CC061C076E07BD07110860085F
:102D1000B20801095609AD09000A4C0A9E0AE80AE0
:102D2000300B7B0BBC0B000C350C670C970CC50CE7
:102D3000F20C1D0D460D6D0D930DB50DD40DF20D5C
:102D40000D0E270E400E580E6F0E840E9A0EAD0E0D
:102D5000C00E4B00500055005A005F0064006F0029
:102D6000810092009F00AE00C100EE001901320107
:102D70004D0164017A019301AC01C501EB0123020D
:102D800057028302B102E8022D037403AA03D3039E
:102D900004044E049C04ED0441059805F0054C061E
:102DA000AA06FC065107A707FC075108A608FD085C
:102DB0004D09A309F009410A8C0AD50A1C0B5F0BC7
:102DC0009F0BE10B1F0C5A0C930CBF0CEA0C140D5B
:102DD0003B0D610D850DA70DC90DE80D060E200EEA
:102DE000380E500E660E7D0E910EA40EB70EC80E54
:102DF000D80EE90E55005B00610069006F00760097
:102E000082009500A900BA00CF00F0002001430124
:102E100067018C01A501C601E701FF011A025002FA
:102E20009302BB02EF0223036103A20308044904D7
:102E30008904AD04FE045205A90501065D06BB0622
:102E400019077A07D10729088208DB0836098A0999
:102E5000E009300A860AD50A150B580B980BD20BDD
:102E6000100C490C800CB30CE60C150D3A0D5F0DDF
:102E7000820DA20DC20DE10DFE0D190E340E4D0E88
:102E8000630E780E8B0E9E0EB10EC20ED20EE20EA7
:102E9000F10EFE0E0D0F60006A0074007E008500CA
:102EA0008C009C00BD00DA00E200F600230158010E
:102EB0008C01B601D601EF0112023F025D028002D1
:102EC000BA02EC021F0355038E03E70367049D0457
:102ED000000546056605BD0515067106CE062C07DC
:102EE0008C07EB074A08A60801096009B709100A10
:102EF000630AB60A080B580BA60BDA0B140C490C24
:102F00007D0CAF0CDE0C0C0D370D600D880DA70D80
:102F1000C50DE20DFE0D180E310E490E600E760E37
:102F20008B0E9D0EAF0EBF0ECF0EDE0EED0EFB0E06
:102F3000080F140F200F2C0F6B0075007F00890005
:102F40009900A500BE00DD00FC000F0123015A011D
:102F50009801C501F5012C0254028602AE02D60288
:102F6000F1021F0359038A03D90340047A04CB04F6
:102F70003A05A205F7052C068706E3064107A007D8
:102F8000FF075E08BC081A097809D509300A880AC3
:102F9000DE0A310B810BCD0B170C5C0C8C0CBB0CBF
:102FA000E70C110D3A0D610D860DAA0DCC0DEC0D3F
:102FB000060E1E0E360E4D0E620E770E8B0E9E0EF8
:102FC000B00EC10ED00EDF0EEC0EFA0E060F130F70
:102FD0001E0F290F340F3E0F470F84008F009A00F9
:102FE000A700B300C300DC00FD001F01350158013C
:102FF0009501DE011D0254028F02BB02E4021C0394
:103000004A037403BC03FD034E048604B70443055E
:103010009D052B067E06CF06FB065807B707150849
:103020007408D2082F098A09E509420AB606F60A89
:103030004B0B9D0BEB0B360C7D0CC00CFF0C260DC7
:103040004C0D700D920DB30DD20DF00D0D0E280E1E
:10305000420E570E6B0E7E0E910EA20EB30EC30ED5
:10306000D30EE10EEF0EFC0E080F140F1F0F290FE9
:10307000330F3D0F460F4F0F570F5F0F93009E000A
:10308000A900BD00C800E500000123015B01820129
:103090009601D20124026402B10200032303520309
:1030A0009703C80302045704A504F10446058605E6
:1030B0000906A306E0066807AF07D0072E088C08AC
:1030C000E9084509A009F909510AA50A010B590B9C
:1030D000AD0BFD0B4A0C920CD70C170D530D8B0D3D
:1030E000AA0DC80DE50D000E1A0E330E4B0E610E23
:1030F000770E8C0E9D0EAD0EBC0ECB0ED90EE70ECC
:10310000F40E000F0C0F180F220F2C0F360F3F0F6D
:10311000470F500F580F5F0F670F6E0F740FBB00F4
:10312000C700D400EB00FC000D0123014D017F011D
:10313000B401DD0138028B02DC0228037F03BA03ED
:10314000E70330046204A204FE0447058F05DD0591
:103150003106A8062F07A70726086E08A608020949
:103160005E09B809100A660ABA0A0B0B5A0BB10BB2
:10317000040C530C9D0CE30C250D620D9B0DD00D22
:10318000010E1A0E310E470E5D0E710E850E970E52
:10319000A90EBA0ECA0ED80EE50EF10EFD0E080FDE
:1031A000130F1D0F270F310F3A0F430F4B0F530F04
:1031B0005A0F620F680F6F0F750F7B0F810F870F0C
:1031C0000008D307D307A607A607790779074D0795
:1031D0004D0721072107F606F606CB06CB06A1060A
:1031E000A106770677064E064E0626062606FE053B
:1031F000FE05D705D705B105B1058B058B0566051D
:103200006605420542051E051E05FB04FB04DD04A0
:10321000DA04B904B90488048804780478045804EA
:103220005804390439041B041B04FE03FE03E103A4
:10323000E103C503C503AA03AA038F038F03750324
:1032400075035C035C03430343032B032B03140349
:103250001403FD02FD02E702E702D202D202BD0220
:10326000BD02A902A90295029502820282026F02A2
:103270006F025D025D024B024B023A023A022A02E1
:103280002A021A021A020A020A02FB01FB01EC01DD
:10329000EC01DE01DE01D001D001C301C301B601A2
:1032A0000200000004000000000000480000004888
:1032B000D03200080000002020000000922C0008FE
:1032C000F03200082000002050050000A22C000869
:1032D00000000400FBFBFB61BDF567D7DF71FFF762
:1032E000FBFBFBFBFBFBFBFB00A24A0428FF80006F
:04000005080000CD22
:00000001FF
